S00D00004C616265782E737265632B
S11300004FC000006AC0000068C0000066C0000065
S113001064C0000062C0000060C000005EC0000058
S11300205CC000005AC0000058C0000056C0000068
S113003054C0000052C0000050C000004EC0000078
S1130040B4C000004AC0000048C0000046C0000020
S113005044C0000042C0000040C000003EC0000098
S11300603CC000003AC0000038C0000036C00000A8
S113007034C0000032C00000BDC300002EC0000028
S11300802CC000002AC0000028C0000074036D03C7
S113009051035803440335035F0363036A0367038F
S11300A011241FBECFEFD0E1DEBFCDBF11E0A0E031
S11300B0B1E0EAE5FDE000E00BBF02C007900D925D
S11300C0A230B107D9F721E0A2E0B1E001C01D924E
S11300D0A231B207E1F7FAD13EC692CF109298004E
S11300E087E68093990088E980939A008EE0809354
S11300F09D0078940895EBE9F0E0908195FFFDCFA1
S113010080939C000895BE9A80E29EE497BD86BDCC
S113011080E28FBD82E18EBD10927A000895853B06
S1130120C8F4682F70E080E090E0E2D420E030E092
S113013044E353E447D420E030EC4AED54E464D57E
S113014020E030E842E254E4D9D3A4D479BD68BDB8
S113015080E0089581E00895843059F0853019F0E5
S1130160823099F40CC080E699E099BD88BD80E0A6
S113017008958AE892E099BD88BD80E0089585EFEE
S113018095E099BD88BD80E008958FEF0895889A21
S113019089980895909885E38A95F1F70000909ADC
S11301A080E58A95F1F7909808951F920F920FB603
S11301B00F9211248F939F93AF93BF9380910A0161
S11301C090910B01A0910C01B0910D010196A11D1C
S11301D0B11D80930A0190930B01A0930C01B0937D
S11301E00D0112BEBF91AF919F918F910F900FBEE1
S11301F00F901F901895F894CADFCCDF1092060177
S113020010920701109208011092090121C08091F7
S1130210060190910701A0910801B091090101968E
S1130220A11DB11D8093060190930701A0930801BD
S1130230B09309018091060190910701A0910801F2
S1130240B09109018F369C46A140B10508F061C008
S1130250819BDDCF12BE83B7816083BF87B7816086
S113026087BF10920A0110920B0110920C01109298
S11302700D01789420C08091060190910701A0910E
S11302800801B09109010196A11DB11D80930601D9
S113029090930701A0930801B0930901809106018E
S11302A090910701A0910801B09109018F369C46F5
S11302B0A140B10570F58199DECF13BE78942091E9
S11302C00A0130910B0140910C0150910D01E2B7EC
S11302D0AFEFB0E027D5DC01CB018E0F911DA11D3E
S11302E0B11D8093020190930301A0930401B09384
S11302F005016091020170910301809104019091C4
S1130300050120EA33E040E050E0E1D47894C901EB
S1130310089578948FEF9FEF08950F931F93CF93D1
S1130320DF93D82FF89467DF8C01D11107C011C077
S113033062DF8C01CF5FCD1302C00BC0C0E0980117
S11303402E5F3F4F2230310598F3C801CDD2811181
S1130350EFCF7894C801DF91CF911F910F91089549
S1130360CF93DF93F89447DFEC010296029720F0D5
S1130370CE01BAD2882319F085E0CFDFEC0178945E
S1130380CE01DF91CF9108959FEF9ABB813019F48C
S1130390D89AD99A0895811102C0D898D998089505
S11303A06230C1F16330D1F1611102C091E033C018
S11303B0882329F090E03AC0DB9A81E005C090E000
S11303C001C091E0DB9880E0992311F0DD9A01C02F
S11303D0DD98882311F0DC9A01C0DC98992311F090
S11303E0DA9A0895DA980895DB9A01C0DB98992384
S11303F011F0DD9A0895DD9808958230D9F422230E
S113040011F0DC9A01C0DC98992311F0DA9A08956E
S1130410DA98089590E0882379F204C0882389F259
S113042091E004C0813001F321E0E7CF8130F1F2A3
S113043020E0E3CF0895CF93C82F61110FC062E08D
S1130440AFDF2FEF87E893E1215080409040E1F740
S113045000C0000060E08C2FA3DF10C0613071F495
S113046063E09EDF2FEF87E893E1215080409040C6
S1130470E1F700C0000060E08C2F92DFCF91089577
S1130480853039F463E081E08BDF62E082E088CF7D
S11304900895843031F462E081E082DF63E082E039
S11304A07FCF0895CF93C62F853039F460E081E083
S11304B077DF6C2F82E074DF07C0843029F481E099
S11304C06FDF60E082E06CDFCF91089581E05CDF54
S11304D005DE19DE109211018FEF84BB80911101AA
S11304E0882321F08130D1F708D0F8CF01D0F6CF9E
S11304F0809111018823E1F308951F93CF93DF9333
S113050085E02ADE2FEF89E698E121508040904073
S1130510E1F700C0000084E01FDE2FEF89E698E1D8
S1130520215080409040E1F700C000001FE0D0EF70
S1130530CFEF89C082E010DE2FEF83EC99E02150E9
S113054080409040E1F700C000000ADF9C012E5F6C
S11305503F4F2230310510F4C5BB75C0843091057E
S113056009F46EC0449708F06BC060E080E018DFC7
S113057084E0F2DD2FEF83EC99E02150804090403D
S1130580E1F700C00000ECDE9C012E5F3F4F2230FB
S1130590310510F4D5BB57C08531910578F084E05E
S11305A06FDF2FEF87E893E1215080409040E1F71F
S11305B000C0000062E080E0F3DE45C0049709F467
S11305C042C085E0C9DD2FEF83EC99E021508040E3
S11305D09040E1F700C00000C3DE9C012E5F3F4F56
S11305E02230310510F415BB2EC0459778F085E014
S11305F047DF2FEF87E893E1215080409040E1F7F7
S113060000C0000062E080E0CBDE1DC085E038DF82
S11306102FEF87E893E1215080409040E1F700C03C
S1130620000085E02DDF2FEF87E893E12150804023
S11306309040E1F700C0000062E080E0B1DE03C05A
S113064062E080E0ADDE80911101813009F472CF67
S1130650DF91CF911F91089590E08A30910508F0C1
S11306604BC0FC01EA5BFF4F54C380910001813011
S113067009F442C080910001882309F43DC06091CF
S1130680000185E00FCF0895809100018130A1F130
S113069080910001882381F16091000184E002CF00
S11306A0089582E08093000162E080E079CE0895AD
S11306B083E08093000163E080E072CE089560E0FF
S11306C080E0B9CE089561E080E0B5CE089585E07C
S11306D0D7CE089584E0D4CE089581E080930001BC
S11306E061E080E05DCE08951092000160E080E05A
S11306F057DE8FEF809300010895CF93811105C0D9
S11307002FDEC92FF8DC8C2FF6DCCF9108958823D7
S113071019F0813089F1089584EB01DD62E080E015
S11307203FDE2FEF83ED90E3215080409040E1F7CE
S113073000C0000087E8F3DC61E081E031DE2FEFE8
S113074085EA9EE0215080409040E1F700C000001F
S113075080E0E5DC63E081E023DE2FEF82E597E0D3
S1130760215080409040E1F700C000008AE5D7DCCA
S113077060E080E015CE089580E0D1DC62E080E0A6
S11307800FDE2FEF83ED90E3215080409040E1F79E
S113079000C0000060E080E003DE80E0C0DC2FEFFA
S11307A089E698E1215080409040E1F700C00000C4
S11307B084EBB5DC2FEF89E698E12150804090402E
S11307C0E1F700C0000080E0AADC2FEF89E698E1A1
S11307D0215080409040E1F700C000008AE59FDC92
S11307E02FEF89E698E1215080409040E1F700C066
S11307F0000008951F920F920FB60F9211240BB6AA
S11308000F922F933F934F935F936F937F938F93A5
S11308109F93AF93BF93EF93FF9380910E0188232F
S113082009F448C080919C0080930F0110920E013E
S113083080911101811124C080911001823099F0BE
S113084028F4882341F0813051F03BC0833079F0A3
S1130850843091F036C080910F01FEDE32C0809169
S11308600F015DDC2EC080910F0151DF2AC0809101
S11308700F018093110125C080910F013EDF21C03B
S1130880809111018130E9F480911001833029F0C5
S1130890843061F08230A9F405C080910F01809307
S11308A011010FC080910F0132DF0BC080910F0145
S11308B024DF07C080919C008093100181E0809325
S11308C00E01FF91EF91BF91AF919F918F917F9115
S11308D06F915F914F913F912F910F900BBE0F90AD
S11308E00FBE0F901F9018959C01295C310981E07F
S11308F025333F4F08F080E008955058BB27AA27BE
S11309000ED048C139D130F03ED120F031F49F3FB0
S113091011F41EF42EC10EF4E095E7FB24C1E92F77
S11309204AD180F3BA17620773078407950718F052
S113093071F49EF562C10EF4E0950B2EBA2FA02D32
S11309400B01B90190010C01CA01A0011124FF2778
S1130950591B99F0593F50F4503E68F11A16F04073
S1130960A22F232F342F4427585FF3CF4695379572
S11309702795A795F0405395C9F77EF41F16BA0B37
S1130980620B730B840BBAF09150A1F0FF0FBB1FE5
S1130990661F771F881FC2F70EC0BA0F621F731F2E
S11309A0841F48F4879577956795B795F7959E3F8B
S11309B008F0B3CF9395880F08F09927EE0F979519
S11309C0879508950CD0E6C0DED040F0D5D030F045
S11309D021F45F3F19F0C7C0511110C1CAC0EBD058
S11309E098F39923C9F35523B1F3951B550BBB27F2
S11309F0AA2762177307840738F09F5F5F4F220F9F
S1130A00331F441FAA1FA9F333D00E2E3AF0E0E897
S1130A1030D091505040E695001CCAF729D0FE2FE3
S1130A2027D0660F771F881FBB1F26173707480775
S1130A30AB07B0E809F0BB0B802DBF01FF2793582B
S1130A405F4F2AF09E3F510568F08DC0D7C05F3FCD
S1130A50ECF3983EDCF3869577956795B795F79513
S1130A609F5FC9F7880F911D9695879597F908950B
S1130A70E1E0660F771F881FBB1F621773078407A7
S1130A80BA0720F0621B730B840BBA0BEE1F88F7B6
S1130A90E095089598D088F09F5790F0B92F992742
S1130AA0B751A0F0D1F0660F771F881F991F1AF075
S1130AB0BA95C9F712C0B13081F09FD0B1E0089562
S1130AC09CC0672F782F8827B85F39F0B93FCCF3E3
S1130AD0869577956795B395D9F73EF4909580956B
S1130AE0709561957F4F8F4F9F4F0895E89409C08B
S1130AF097FB3EF490958095709561957F4F8F4F4D
S1130B009F4F9923A9F0F92F96E9BB279395F69562
S1130B10879577956795B795F111F8CFFAF4BB0FE0
S1130B2011F460FF1BC06F5F7F4F8F4F9F4F16C044
S1130B30882311F096E911C0772321F09EE8872FCE
S1130B40762F05C0662371F096E8862F70E060E08A
S1130B502AF09A95660F771F881FDAF7880F969503
S1130B60879597F9089597F99F6780E870E060E0AA
S1130B7008959FEF80EC089500240A941616170632
S1130B8018060906089500240A941216130614067A
S1130B9005060895092E0394000C11F4882352F0DD
S1130BA0BB0F40F4BF2B11F460FF04C06F5F7F4F95
S1130BB08F4F9F4F089557FD9058440F551F59F07C
S1130BC05F3F71F04795880F97FB991F61F09F3F36
S1130BD079F087950895121613061406551FF2CF5F
S1130BE04695F1DF08C0161617061806991FF1CFAF
S1130BF086957105610508940895E894BB276627D6
S1130C007727CB0197F908950BD0C4CFB5DF28F02F
S1130C10BADF18F0952309F0A6CFABCF1124EECF9D
S1130C20CADFA0F3959FD1F3950F50E0551F629F43
S1130C30F001729FBB27F00DB11D639FAA27F00D31
S1130C40B11DAA1F649F6627B00DA11D661F829F58
S1130C502227B00DA11D621F739FB00DA11D621F3D
S1130C60839FA00D611D221F749F3327A00D611D5A
S1130C70231F849F600D211D822F762F6A2F11243C
S1130C809F5750408AF0E1F088234AF0EE0FFF1F8F
S1130C90BB1F661F771F881F91505040A9F79E3FC6
S1130CA0510570F060CFAACF5F3FECF3983EDCF3C0
S1130CB0869577956795B795F795E7959F5FC1F703
S1130CC0FE2B880F911D9695879597F90895A1E2BB
S1130CD01A2EAA1BBB1BFD010DC0AA1FBB1FEE1FB2
S1130CE0FF1FA217B307E407F50720F0A21BB30BFD
S1130CF0E40BF50B661F771F881F991F1A9469F779
S1130D0060957095809590959B01AC01BD01CF01D4
S1130D100895EE0FFF1F0024001C0BBE0790F691F0
S1130D20E02D099409D0A59F900DB49F900DA49F28
S1130D30800D911D11240895A29FB001B39FC0019D
S1130D40A39F700D811D1124911DB29F700D811DF3
S10D0D501124911D0895F894FFCFBB
S1050D5A010092
S9030000FC
